:03000000020006F5
:03005F0002000399
:0300030002006296
:1D0062007E007F00C3EE9403EF64809480500DE59024FBF5900EBE00EB0F80E8228F
:06003500E478FFF6D8FD9F
:200013007900E94400601B7A00900083780175A000E493F2A308B8000205A0D9F4DAF27510
:02003300A0FF2C
:20003B007800E84400600A790175A000E4F309D8FC7800E84400600C7900900001E4F0A3C3
:04005B00D8FCD9FAFA
:0D00060075810712007FE582600302000390
:04007F007582002264
:00000001FF
